S00E0000752D626F6F742E73726563C0
S31587800000B80000EA14F09FE514F09FE514F09FE5A9
S3158780001014F09FE514F09FE514F09FE514F09FE5B3
S3158780002060008087C00080872001808780018087E5
S31587800030E001808740028087A0028087EFBEADDEA1
S315878000402000900000F020E300F020E300F020E31A
S3158780005000F020E300F020E300F020E300F020E3C7
S3158780006028D01FE500E08DE500E04FE104E08DE5CF
S3158780007013D0A0E30DF069E10FE0A0E10EF0B0E1C7
S3158780008048D04DE2FF1F8DE850201FE50C0092E88F
S3158780009048008DE234508DE20E10A0E10F0085E88E
S315878000A00D00A0E1DF0500FA00F020E300F020E3F1
S315878000B000F020E300F020E300F020E300F020E367
S315878000C088D01FE500E08DE500E04FE104E08DE50F
S315878000D013D0A0E30DF069E10FE0A0E10EF0B0E167
S315878000E048D04DE2FF1F8DE8B0201FE50C0092E8CF
S315878000F048008DE234508DE20E10A0E10F0085E82E
S315878001000D00A0E1D10500FA00F020E300F020E39E
S3158780011000F020E300F020E300F020E300F020E306
S31587800120E8D01FE500E08DE500E04FE104E08DE54E
S3158780013013D0A0E30DF069E10FE0A0E10EF0B0E106
S3158780014048D04DE2FF1F8DE810211FE50C0092E80D
S3158780015048008DE234508DE20E10A0E10F0085E8CD
S315878001600D00A0E1C30500FA00F020E300F020E34C
S3158780017000F020E300F020E300F020E300F020E3A6
S3158780018048D11FE500E08DE500E04FE104E08DE58D
S3158780019013D0A0E30DF069E10FE0A0E10EF0B0E1A6
S315878001A048D04DE2FF1F8DE870211FE50C0092E84D
S315878001B048008DE234508DE20E10A0E10F0085E86D
S315878001C00D00A0E1B50500FA00F020E300F020E3FA
S315878001D000F020E300F020E300F020E300F020E346
S315878001E0A8D11FE500E08DE500E04FE104E08DE5CD
S315878001F013D0A0E30DF069E10FE0A0E10EF0B0E146
S3158780020048D04DE2FF1F8DE8D0211FE50C0092E88C
S3158780021048008DE234508DE20E10A0E10F0085E80C
S315878002200D00A0E1A70500FA00F020E300F020E3A7
S3158780023000F020E300F020E300F020E300F020E3E5
S3158780024008D21FE500E08DE500E04FE104E08DE50B
S3158780025013D0A0E30DF069E10FE0A0E10EF0B0E1E5
S3158780026048D04DE2FF1F8DE830221FE50C0092E8CB
S3158780027048008DE234508DE20E10A0E10F0085E8AC
S315878002800D00A0E1A30500FA00F020E300F020E34B
S3158780029000F020E300F020E300F020E300F020E385
S315878002A068D21FE500E08DE500E04FE104E08DE54B
S315878002B013D0A0E30DF069E10FE0A0E10EF0B0E185
S315878002C048D04DE2FF1F8DE890221FE50C0092E80B
S315878002D048008DE234508DE20E10A0E10F0085E84C
S315878002E00D00A0E1810500FA120000EA00000FE107
S315878002F01F1000E21A0031E31F00C013130080131A
S31587800300C00080E300F029E1100F11EE020AC0E3F6
S31587800310100F01EE84009FE5100F0CEE060000EBB0
S315878003201D0000EBD50200EB150F07EE9A0F07EE3F
S31587800330950F07EE1EFF2FE1EBFFFFEA0000A0E394
S31587800340170F08EE150F07EED50F07EE9A0F07EEF4
S31587800350950F07EE100F11EE020AC0E30700C0E380
S31587800360020080E3020B80E3010A80E3100F01EE2F
S315878003700E50A0E1101F10EE213AA0E10F3003E264
S315878003800F4001E20322A0E1022084E110009FE56D
S315878003900700C0E300D0A0E105F0A0E1A80200EA4B
S30D878003A00000808720FF910091
S315878003A8FEE70148704700BF030000800048704712
S315878003B80300008000487047030000800048704724
S315878003C80300008000487047030000800048704714
S315878003D80300008000487047030000802DE9FF4DA1
S315878003E80E46D1F8008022F0F3F81F4A1368002B4F
S315878003F835D0002E35D05768D2F808A00022C34654
S315878004084FF0000C0192019A974201D1174C1BE055
S31587800418D3E902018C4508BF83451BD3D3E906E216
S3158780042812034FEA0E34241842EA1E524A4102942E
S315878004380392DDE90245AC4508BFA3450AD2002465
S315878004481B69181A4044306022F0D6F8204604B0D3
S31587800458BDE8F08D019A534401320192D3E7044C63
S31587800468F2E7044CF0E700BF200780870E000080FC
S31587800478030000800200008010B504460020E268E9
S315878004882061214600F058F8206110BD00487047E2
S315878004980300008000487047030000800048704743
S315878004A8030000800048704703000080F0B58C07FA
S315878004B80ED06AB11F4C11F8013B013A83EA0003D3
S315878004C8DBB254F8233083EA102001D08B07F2D128
S315878004D80E4602F00303174C22F003025718B742D9
S315878004E810D1043A114463B10331124CCA1811F8F2
S315878004F8013F4340DBB254F82330914283EA102088
S31587800508F5D1F0BD56F8045B6840C5B254F82550D6
S3158780051885EA1025E8B254F8200080EA1525E8B2DE
S3158780052854F8200080EA1520C5B254F8255085EA04
S315878005381020D4E78007808708B5C043FFF7B6FFC2
S31587800548C04308BD0448054B10300364044B836158
S31587800558044BC361FFF790BF20078087A9038087ED
S31587800568AB038087B50380872DE9FF4D06460D4601
S31587800578334C344B9C4206D3334B1E6004B0BDE85C
S31587800588F04D00F0BDBBD9F83810D4F800A001F13A
S31587800598F1410AEB01005DB12C4B984202D3343383
S315878005A898421FD92A4B98421CD0043B984219D027
S315878005B82279172A11D1244B1A685AF80130B21A28
S315878005C813448DB94AF8013000F1430121F03F0180
S315878005D820F03F0000F0C2FB04E000231D491E4837
S315878005E82FF04BF90834C4E79B464FF0000CCDE9CA
S315878005F802BCD5E904BCE0464FF0000C5F46C4458B
S3158780060808BFBB4215D3D5E906E24FEA023C4CEAD6
S315878006181E5C4FEA0E3E1EEB070200924CEB0802E1
S315878006284FF0000C0192DDE90078E04508BF9F42CC
S31587800638C8D20246074909482FF01FF9D2E700BF73
S31587800648AC7684874C778487D45384874807808712
S31587800658BC068087AD5A8387680680878A0680879F
S3158780066825733A20556E6B6E6F776E2072656C6FC1
S31587800678636174696F6E207479706520256C6C7870
S315878006880A0025733A2052656C6F636174696F6E49
S31587800698206174202570206973206F7574206F6632
S315878006A82072616E67652028256C78290A00000084
S315878006B8B8068087B8068087494249205359535454
S315878006C8500002004800000000000000000000007B
S315878006D808078087000420200000000000000000AB
S315878006E800000000000000000000000000000000F5
S315878006F830078087000000000000000000000000A7
S31587800708440061007300200055002D0042006F0069
S315878007186F007400000000000000000000000000E1
S31587800728000000000000000052554E54534552562B
S315878007385000020050000000000000000000000002
S31587800748297E8287157E8287BD038087BD038087BA
S31587800758757E8287E503808755848287CD8582875C
S3158780076865878287BD038087C57D8287D50380878E
S31587800778DD038087AD048087000000009630077781
S315878007882C610EEEBA51099919C46D078FF46A7070
S3158780079835A563E9A395649E3288DB0EA4B8DC7990
S315878007A81EE9D5E088D9D2972B4CB609BD7CB17E10
S315878007B8072DB8E7911DBF906410B71DF220B06AE0
S315878007C84871B9F3DE41BE847DD4DA1AEBE4DD6DF0
S315878007D851B5D4F4C785D38356986C13C0A86B64F0
S315878007E87AF962FDECC9658A4F5C0114D96C066310
S315878007F8633D0FFAF50D088DC8206E3B5E10694CF0
S31587800808E44160D5727167A2D1E4033C47D4044B2F
S31587800818FD850DD26BB50AA5FAA8B5356C98B2420F
S31587800828D6C9BBDB40F9BCACE36CD832755CDF458F
S31587800838CF0DD6DC593DD1ABAC30D9263A00DE51BF
S315878008488051D7C81661D0BFB5F4B42123C4B356AF
S315878008589995BACF0FA5BDB89EB802280888055F2F
S31587800868B2D90CC624E90BB1877C6F2F114C68588F
S31587800878AB1D61C13D2D66B69041DC760671DB017D
S31587800888BC20D2982A10D5EF8985B1711FB5B6064F
S31587800898A5E4BF9F33D4B8E8A2C9077834F9000F8F
S315878008A88EA8099618980EE1BB0D6A7F2D3D6D082F
S315878008B8976C6491015C63E6F4516B6B62616C1C1F
S315878008C8D83065854E0062F2ED95066C7BA5011B4F
S315878008D8C1F4088257C40FF5C6D9B06550E9B712EF
S315878008E8EAB8BE8B7C88B9FCDF1DDD62492DDA15AF
S315878008F8F37CD38C654CD4FB5861B24DCE51B53ACF
S315878009087400BCA3E230BBD441A5DF4AD795D83DCE
S315878009186DC4D1A4FBF4D6D36AE96943FCD96E340E
S31587800928468867ADD0B860DA732D0444E51D0333EE
S315878009385F4C0AAAC97C0DDD3C710550AA410227FE
S3158780094810100BBE86200CC925B56857B3856F20CE
S3158780095809D466B99FE461CE0EF9DE5E98C9D9292E
S315878009682298D0B0B4A8D7C7173DB359810DB42E6E
S315878009783B5CBDB7AD6CBAC02083B8EDB6B3BF9ABA
S315878009880CE2B6039AD2B1743947D5EAAF77D29D46
S315878009981526DB048316DC73120B63E3843B649426
S315878009A83E6A6D0DA85A6A7A0BCF0EE49DFF099326
S315878009B827AE000AB19E077D44930FF0D2A3088796
S315878009C868F2011EFEC206695D5762F7CB67658046
S315878009D871366C19E7066B6E761BD4FEE02BD38946
S315878009E85A7ADA10CC4ADD676FDFB9F9F9EFBE8EA6
S315878009F843BEB717D58EB060E8A3D6D67E93D1A1E6
S31587800A08C4C2D83852F2DF4FF167BBD16757BCA6C5
S31587800A18DD06B53F4B36B248DA2B0DD84C1B0AAF65
S31587800A28F64A0336607A0441C3EF60DF55DF67A8E5
S31587800A38EF8E6E3179BE69468CB361CB1A8366BC75
S31587800A48A0D26F2536E2685295770CCC03470BBBC5
S31587800A58B91602222F260555BE3BBAC5280BBDB2C5
S31587800A68925AB42B046AB35CA7FFD7C231CFD0B565
S31587800A788B9ED92C1DAEDE5BB0C2649B26F263EC57
S31587800A889CA36A750A936D02A906099C3F360EEB65
S31587800A988567077213570005824ABF95147AB8E225
S31587800AA8AE2BB17B381BB60C9B8ED2920DBED5E505
S31587800AB8B7EFDC7C21DFDB0BD4D2D38642E2D4F155
S31587800AC8F8B3DD686E83DA1FCD16BE815B26B9F6E5
S31587800AD8E177B06F7747B718E65A0888706A0FFF45
S31587800AE8CA3B06665C0B0111FF9E658F69AE62F805
S31587800AF8D3FF6B6145CF6C1678E20AA0EED20DD705
S31587800B085483044EC2B30339612667A7F71660D024
S31587800B184D476949DB776E3E4A6AD1AEDC5AD6D964
S31587800B28660BDF40F03BD83753AEBCA9C59EBBDE84
S31587800B387FCFB247E9FFB5301CF2BDBD8AC2BACA34
S31587800B483093B353A6A3B4240536D0BA9306D7CDA4
S31587800B582957DE54BF67D9232E7A66B3B84A61C4C4
S31587800B68021B685D942B6F2A37BE0BB4A18E0CC384
S31587800B781BDF055A8DEF022D800B8087800B808738
S31587800B88FFFFFFFFFFFFFFFFFFFFFFFFFFFFFFFF60
S30D87800B98FFFFFFFFFFFFFFFF50
S31587800BA05FF07FF5300F30EEA03BA0E10E3013E289
S31587800BB01C00000A00A0A0E3AA208AE03012A0E1E8
S31587800BC0071001E2020051E3130000BA10AF40EE2E
S31587800BD06FF07FF5101F30EE072001E2042082E256
S31587800BE0FF4300E3A14114E0145F6FE1FF7F07E3D2
S31587800BF0A17617E00790A0E11465A0E106B08AE1A7
S31587800C001962A0E106B08BE15EBF07EE019059E2DB
S31587800C10F8FFFFAA014054E2F5FFFFAA02A08AE205
S31587800C200A0053E1E3FFFFCA00A0A0E310AF40EEBE
S31587800C304EF07FF56FF07FF51EFF2FE1F04E2DE9A1
S31587800C40D6FFFFEBF04EBDE81EFF2FE15FF07FF505
S31587800C50300F30EEA03BA0E10E3013E21C00000A75
S31587800C6000A0A0E3AA208AE03012A0E1071001E263
S31587800C70020051E3130000BA10AF40EE6FF07FF5A4
S31587800C80101F30EE072001E2042082E2FF4300E353
S31587800C90A14114E0145F6FE1FF7F07E3A17617E038
S31587800CA00790A0E11465A0E106B08AE11962A0E108
S31587800CB006B08BE156BF07EE019059E2F8FFFFAA8F
S31587800CC0014054E2F5FFFFAA02A08AE20A0053E1B7
S31587800CD0E3FFFFCA00A0A0E310AF40EE4EF07FF59A
S31587800CE06FF07FF51EFF2FE1F04E2DE9D6FFFFEBE4
S31587800CF0F04EBDE81EFF2FE1100F11EE0200C0E314
S31587800D00100F01EE1EFF2FE1002307EE153F07EE3A
S31587800D10D53FBFF34F8FBFF36F8F7047704770474D
S31587800D20704708B5FFF78AEFBDE80840FFF7F8BF39
S31587800D30704708B5FFF7D8EFBDE80840FFF7F8BFDB
S31587800D4008B5FFF7EBFFFFF7F4FF002308EE173FA1
S31587800D5008EE163F08EE153FBFF34F8FBFF36F8FB1
S31587800D6008BD704738B504460D4600F001FE30EE63
S31587800D70103F012203F0070304339A4053422340EE
S31587800D809D4207D8BFF34F8F29462046BDE8384016
S31587800D90FFF7E7BF07EE3E3F1344F1E708B5FFF756
S31587800DA0E1FF002308EE173F08EE163F08EE153F52
S31587800DB0BFF34F8FBFF36F8F08BD704770B50546FA
S31587800DC00E4600F0D5FD30EE104F3146284600F0AE
S31587800DD0CFFD40B1012304F00704043403FA04F4F9
S31587800DE02B469E4207D8BFF34F8F31462846BDE8AC
S31587800DF07040FFF7E2BF07EE363F2344F1E770473F
S31587800E0010B5044600F047FCE3070DD500F051FE88
S31587800E10FFF785FFFFF78DFF00F004FEFFF774FF6E
S31587800E20FFF7EDFF002010BD00F0FCFDFFF76CFF9C
S31587800E30FFF777FFFFF768FF00F0EBFDF0E703200A
S31587800E40FFF7DEBF18D09FE507D0CDE3D8D04DE238
S31587800E5007D0CDE30D90A0E100502DE99D0600FADD
S31587800E600090BDE820FF9100000000000000000090
S31587800E700000000000000000000000000000000065
S31587800E8078009FE50700C0E300D0A0E1812500FABE
S31587800E9000D0A0E10090A0E1812500FA0000A0E3C0
S31587800EA0B82B00FA480099E50700C0E300D0A0E197
S31587800EB0009099E5D89049E20CE08FE24C0099E55D
S31587800EC000E08EE0380099E5030100EAFF0000EB39
S31587800ED014FDFFEB28009FE528309FE50010A0E3EF
S31587800EE0002053E00D0000FA832B00FB832B00FA4A
S31587800EF00900A0E1381099E50CE09FE51EFF2FE1F8
S31587800F0020FF91004C77848744EC84873DBF808718
S31587800F1000000000000000000000000000000000C4
S31587800F2010F0030384463DD141EA012141EA01411C
S31587800F300B46102A1FDB2DE9004188468E46403AAC
S31587800F40A1BFACE80A41ACE80A41ACE80A41ACE803
S31587800F500A41F4DC08BFBDE8008112F0200F1CBF70
S31587800F60ACE80A41ACE80A4112F0100F18BFACE82A
S31587800F700A41BDE8004112F0080F18BFACE80A00A5
S31587800F8012F0040F18BF4CF8041B12F0020F1CBF17
S31587800F900CF8011B0CF8011B12F0010F18BF0CF817
S31587800FA0011B7047043AF0DB022BB8BF0CF8011B94
S31587800FB0D8BF0CF8011B0CF8011B1A44B4E700BF95
S31587800FC0884208BF70472DE91140043A4BDB10F001
S31587800FD0030C91F800F05AD111F0030C71D11C3AA9
S31587800FE02DE9E00114DB91F800F0603A91F81CF066
S31587800FF005DB91F83CF091F85CF091F87CF0B1E8EC
S31587801000F851203AA0E8F851F7DA12F1600FF6DA4C
S3158780101012F01C0CCCF1200C18BFE74421E0AFF30B
S31587801020008051F8043B51F8044B51F8045B51F822
S31587801030046B51F8047B51F8048B51F804EBE74431
S3158780104000BFAFF3008040F8043B40F8044B40F87C
S31587801050045B40F8046B40F8047B40F8048B40F8C7
S3158780106004EBBDE8E001D20718BF11F8013B24BF26
S3158780107011F8014B11F801CB18BF00F8013B24BF4B
S3158780108000F8014B00F801CBBDE811407047CCF1E1
S31587801090040CBCF1020FC8BF11F8013BA8BF11F839
S315878010A0014B11F801EBC8BF00F8013BA8BF00F8D8
S315878010B0014BB2EB0C0200F801EBD4DB11F0030C89
S315878010C08DD021F00301BCF1020F51F804EB4ED08D
S315878010D000F39A801C3A39DB2DE9E00391F800F01A
S315878010E0603A91F81CF005DB91F83CF091F85CF05A
S315878010F091F87CF0F0C94FEA1E23203AB1E8005375
S3158780110043EA04634FEA142444EA05644FEA1525C3
S3158780111045EA06654FEA162646EA07664FEA17279F
S3158780112047EA08674FEA182848EA09684FEA19297B
S3158780113049EA0C694FEA1C2C4CEA0E6CA0E8F81336
S31587801140D6DA12F1600FD5DABDE8E00312F01C0C0F
S315878011500AD04FEA1E2351F804EBBCF1040C43EA0C
S315878011600E6340F8043BF4DCA1F103017BE71C3A6C
S3158780117039DB2DE9E00391F800F0603A91F81CF0AD
S3158780118005DB91F83CF091F85CF091F87CF0F0C93A
S315878011904FEA1E43203AB1E8005343EA04434FEAB5
S315878011A0144444EA05444FEA154545EA06454FEA1D
S315878011B0164646EA07464FEA174747EA08474FEAF9
S315878011C0184848EA09484FEA194949EA0C494FEAD3
S315878011D01C4C4CEA0E4CA0E8F813D6DA12F1600F55
S315878011E0D5DABDE8E00312F01C0C0AD04FEA1E431D
S315878011F051F804EBBCF1040C43EA0E4340F8043BF8
S31587801200F4DCA1F102012EE71C3A39DB2DE9E003F4
S3158780121091F800F0603A91F81CF005DB91F83CF084
S3158780122091F85CF091F87CF0F0C94FEA1E63203A1A
S31587801230B1E8005343EA04234FEA146444EA052459
S315878012404FEA156545EA06254FEA166646EA072672
S315878012504FEA176747EA08274FEA186848EA09284E
S315878012604FEA196949EA0C294FEA1C6C4CEA0E2C1D
S31587801270A0E8F813D6DA12F1600FD5DABDE8E00375
S3158780128012F01C0C0AD04FEA1E6351F804EBBCF1AE
S31587801290040C43EA0E2340F8043BF4DCA1F10101F8
S315878012A0E1E600BF0DC0A0E1F05F80E80000A0E323
S315878012B01EFF2FE1F05F90E80CD0A0E10100A0E14E
S315878012C0000050E30000001A0100A0E31EFF2FE113
S315878012D0380099E5100F0CEE1EFF2FE14C109FE525
S315878012E0014050E01000000A44209FE5000CB1E8D9
S315878012F0000CA0E8020051E1FBFFFF3A34209FE50E
S3158780130034309FE50300B2E8FF1001E2170051E30E
S315878013100300001A040080E0001090E5041081E045
S31587801320001080E5030052E1F5FFFF3A1EFF2FE1AB
S31587801330000080874C7784874C7784874418858795
S315878013401FB50023D9F80020916CD26CCDE90013A4
S31587801350CDE902236946012302AA0BF0A5FD05B0D4
S315878013605DF804FB10B50424074ADFF820C01368AC
S31587801370091AC3E9004C1368D9601968986003EB2A
S315878013808103136010BD00BF4C7784870500425464
S31587801390D9F800206946D26CA1F580518AB1D9F8EF
S315878013A00020926C91420CD3D9F80020D9F800306E
S315878013B0926CDB6C1A44531E994202D8521A2CF0CF
S315878013C0F2BD70477047000073B5D9F8003005467F
S315878013D01B6C066E1A480C46019308F09DFF48B130
S315878013E001AA10212EF0FEFA002822DB01991548E2
S315878013F02EF047FA0F2009F05FF8AD2009F05CF8E8
S31587801400FFF7E0FF104B114904F40074002C08BFE6
S3158780141019460F482EF035FA4FF4C06010F09AFBC4
S31587801420FFF70DFD2B6F33B1EA6E14B9019920460C
S31587801430B04702B070BDD9F800305A6CF5E700BF67
S31587801440486383874F6383872D8E838731638387BB
S31587801450746383877047704770B505463A4808F046
S315878014605BFF2A6F4AB128460DF0F9FE002866D0C1
S3158780147036482EF006FA2CF075FC0526D9F800300A
S31587801480334C5B6CDFF8D8E02360C3E9006E236852
S315878014909A60DA601A611A6803EB82032360D9F847
S315878014A00020C0B1064610F8012B202AFAD092B1C7
S315878014B0284A30465A602DF069FA23680D308008AD
S315878014C018602068314608302DF000FA23681A683C
S315878014D003EB8203236001F09DF8032223681E4E67
S315878014E0C3E9002623681D4E1968986003EB81003F
S315878014F02060D9F800204660042043F821002368BD
S31587801500916CD960D26C9A601A68686F03EB820394
S31587801510236030B1A96F21B14B461B68FFF722FF45
S3158780152004E0686E10B1A96E0029F5D10848FFF7E7
S3158780153091FF4B4600221B6823685A601A602846AB
S31587801540BDE87040FFF787BFB17C83878D638387CC
S315878015504C778487090041540700415402004154DF
S3158780156001004154F8B510F0C00704461D4614D1D2
S3158780157010F4807605D01846FFF76EFF3E463046D4
S31587801580F8BD10F4C06F04D021462846FFF71CFFAC
S31587801590F5E71846FFF760FFF6E74FF0FF36EEE789
S315878015A010B50446C06E58B107492BF069F90028F3
S315878015B006DDE06EFFF7C4FE10B104480CF024FC0C
S315878015C0BDE81040FFF73BBCAD638387B5638387F0
S315878015D0036EC06E1847000010B590F8254090F8C6
S315878015E0243043EA042390F8264043EA044390F85C
S315878015F0274043EA0463184CA34207D0174CA3427B
S3158780160004D017480CF000FC012010BD90F82940C3
S3158780161090F8283043EA042390F82A4043EA044323
S3158780162090F82B4043EA04630B6090F82D4090F83E
S315878016302C3043EA042390F82E4043EA044390F8FB
S315878016402F4043EA046313600A68014605482EF0F3
S3158780165018F90020D9E700BF18286F01626F7800D4
S315878016600366838717668387D9F848200020C9F859
S315878016704420D9F84820103AC9F848207047000096
S31587801680D9F84430024A083313600020704700BF78
S3158780169040008087704700207047000008B5014862
S315878016A02DF0C6FB125E83872DE9F0450446A3B0ED
S315878016B080224C4902A8FFF783FCA26BE16B4A48DC
S315878016C0256C2EF0DEF8D9F8042005F07046D2070F
S315878016D00AD5D9F84C10A06BD9F84C20E36B821ABF
S315878016E0591A42482EF0CDF8E36A226B616B4048DF
S315878016F02EF0C7F8236A626AA16A3E482EF0C1F83F
S3158780170023693D4800936369A269E1692EF0B9F838
S3158780171023683A480093E1686368A2682EF0B1F837
S31587801720002EB4BF4E216E2115F0804F14BF5A22EA
S315878017307A2215F0005F14BF4323632315F0805FF9
S3158780174014BF5620762000902D482EF09AF8206C6C
S315878017502C4A2D4B10F0800F14BF1946114610F076
S31587801760400F18BF1A4622AD00F01F0305EB83038F
S31587801770264D10F0200F264808BF284653F8803C10
S31587801780009024482EF07DF8276CE56B17F02007AC
S315878017900ED125F0030508260DE035F81420002C98
S315878017A00CBF4046504631462EF06BF801340BE02D
S315878017B0042625F0010518482EF063F86FF0030498
S315878017C0DFF85C80DFF85CA027B9002C04DC55F84D
S315878017D02420E4E7022CE0D1104823B0BDE8F04509
S315878017E02EF04FB820318387BCD78387B6D7838738
S315878017F0DED7838702D8838726D8838756D88387F9
S3158780180086D883877FD583875F7683872D8E838761
S31587801810A3D7838796D88387B5D88387C5CC83878D
S31587801820A8D78387B0D78387044608B521F09AF8E7
S3158780183006482EF026F8E36B2046043BE363FFF7E2
S3158780184033FFE06B25F0ACFCFFF728FFB6988387DC
S31587801850044608B521F086F806482EF012F8E36B21
S315878018602046043BE363FFF71FFFE06B25F098FC78
S31587801870FFF714FFB6968387044608B521F072F87A
S3158780188006482DF0FEFFE36B2046083BE363FFF7B0
S315878018900BFFE06B25F084FCFFF700FF5D9683875F
S315878018A0044608B521F05EF806482DF0EAFFE36B1B
S315878018B02046083BE363FFF7F7FEE06B25F070FC75
S315878018C0FFF7ECFE687D8387044608B521F04AF8E2
S315878018D006482DF0D6FFE36B2046083BE363FFF788
S315878018E0E3FEE06B25F05CFCFFF7D8FE1E968387C8
S315878018F0044608B521F036F806482DF0C2FFE36B1B
S315878019002046083BE363FFF7CFFEE06B25F048FC74
S31587801910FFF7C4FEA7848387044608B521F022F89B
S3158780192006482DF0AEFFE36B2046083BE363FFF75F
S31587801930BBFEE06B25F034FCFFF7B0FEAC84838773
S3158780194008B508480CF060FA4CF250302DF04CF907
S31587801950FFF7A1FE00F0BEFF002015F083FB002075
S3158780196008BD00BF6D9683870144FFF7FBB90000EA
S315878019700A46910608B500F03F0300D12BB1014690
S3158780198003482DF07EFF002008BD0120FCE700BFBD
S31587801990426683877047D9F8D03041F4406141EAFF
S315878019A0005143F820107047F8B5050D2F4600F58E
S315878019B07F2303F6FF731944D9F8D0600C0DA742AD
S315878019C00CD306EB840106EB8500BDE8F8403F31F2
S315878019D021F03F0120F03F00FFF7E0B938461146F6
S315878019E0FFF7D9FF0137EAE710B5D9F8004004EB4E
S315878019F0C004A26C120DE36CA16C1B0D03EB115313
S31587801A00934200D810BD10461E21FFF7C4FF0132CE
S31587801A10F1E711EE103F43F4805301EE103FBFF399
S31587801A206F8F704711EE103F11EE103F23F480536E
S31587801A3001EE103FBFF36F8F704711EE100FC0F323
S31587801A400030704710B511EE104F14F0010427D17E
S31587801A50FFF776F9204612210134FFF79CFFB4F50C
S31587801A60805FF7D10020FFF7BFFF002302EE503F4C
S31587801A70D9F8D03023F47F5323F03F0343F05903BB
S31587801A8002EE103F4FF0FF3303EE103FFFF782FFE2
S31587801A9011EE103F43F0010301EE103FBFF36F8FC6
S31587801AA011EE103F43F0040301EE103FBFF36F8FB3
S31587801AB010BD10B511EE103F5B0709D511EE104F9B
S31587801AC0FFF72FF924F0050401EE104FBFF36F8FD0
S31587801AD010BD11EE100FC0F3800070472DE9F34DCE
S31587801AE04FEA1118050E08F0200345EA01250446BA
S31587801AF00E46C0F30B0A8F0A019300F0A7FCC0F34A
S31587801B000730652808F03F0BC5F30B0523D1019B6A
S31587801B1043BB00F09BFC000B00F0F000702827D1B8
S31587801B201B4B1B6843F80AB01DB1194B360F1B68D0
S31587801B305E51BB0307D4C4F30B3424B1144BC7F36C
S31587801B4011071B681F51019B13B1114B114A1A60EC
S31587801B5002B0BDE8F08D00F079FCC0F307306728C6
S31587801B60D7D1D4E70A4A0C4908F01F0B1160D0E712
S31587801B7000F06CFCC0F307306528D1D000F066FC96
S31587801B80C0F307306728CBD0BAF1000FC8D1CBE72F
S31587801B90202F848700000E020000290270B5054633
S31587801BA00E460024B44200D170BDF5E802010134A7
S31587801BB0FFF794FFF6E70000064B1A68013207D1D4
S31587801BC0054A9168BFF35F8F1960BFF35F8F916016
S31587801BD018687047242F848700800D026A2855D01D
S31587801BE01FD8632850D00ED8602855D005D851285D
S31587801BF05AD053285AD02E487047612848D06228B1
S31587801C00F9D12C487047662844D005D8642847D0B0
S31587801C106528F0D128487047682833D03ED9274829
S31587801C207047862822D00ED8722829D005D86B2867
S31587801C3038D07128DFD12248704782281ED08528E0
S31587801C40D9D120487047892814D005D887280FD0BE
S31587801C508828D0D11C4870478B2805D00CD3B0F5FF
S31587801C60C17FC8D119487047194870471948704746
S31587801C7019487047194870471948704719487047F7
S31587801C8019487047194870471948704719487047E7
S31587801C9019487047194870471948704719487047D7
S31587801CA019487047194870471948704719487047C7
S31587801CB0D38E83877EB5838786B583875DB583870E
S31587801CC057B5838732B5838742B5838727B5838719
S31587801CD02BB5838737B583873DB5838748B5838714
S31587801CE04DB5838753B583875AB5838761B5838790
S31587801CF065B5838768B583876BB583876FB5838734
S31587801D0075B5838779B5838782B583878BB58387CF
S31587801D1090B5838793B5838730B585B000F096FB7A
S31587801D200246C0F30830FFF759FF02F00F030146DA
S31587801D30C2F3031240482DF0A4FD00F0D3FB3F4D3C
S31587801D400446B8B9002001F04DF8A0FB05013C4850
S31587801D50890C2DF096FD3B480CF056F803A902A80E
S31587801D6000F034FC02283AD0032815D0012838D1D0
S31587801D70354812E0002001F035F8A042E2D00020F5
S31587801D8001F030F8A0FB0523A4FB05019A0C890C8A
S31587801D902E482DF076FDDEE72D480CF035F8DDE907
S31587801DA002122C482DF06DFD6A460021592010F0CD
S31587801DB09FF840B901A9009815F062F918B9019979
S31587801DC025482DF05EFDFFF7F7FE112831D010D814
S31587801DD004281FD007D801282BD020491BE020480C
S31587801DE0DBE72048D9E708281BD01028F5D11E497C
S31587801DF011E0802819D005D8202814D04028ECD126
S31587801E001A4908E0B0F5807F11D0B0F5803FE4D1DC
S31587801E10174900E0174918482DF033FD002005B093
S31587801E2030BD1649F7E71649F5E71649F3E71649A8
S31587801E30F1E71649EFE700BF12CF838783DE1B431F
S31587801E4033CF83875BCF83879FCF83873ECF8387B6
S31587801E5063CF8387C6CF8387D3CF838704CF838711
S31587801E6081CF8387A8CF8387D1CE8387E2CE838727
S31587801E70FACE8387C4CE8387DCCF8387C8CE838792
S31587801E80D6CE8387EACE8387F0CE8387C0CE838775
S31587801E9010B5054B5C6900F0CFFEC4F38221013112
S31587801EA030F05CEF10BD00BF00400C02704710B564
S31587801EB00B204C4600F096FFC4F8B000002010BD7A
S31587801EC010B5114A1368BFF35F8F9169BFF35F8F30
S31587801ED00E4CC3F3026202F10C00C3F30252A25C7A
S31587801EE00244C3F30140C3F380731844C1F340139C
S31587801EF00749CB5C13441844202816BF01234FF02B
S31587801F00704003FA00F010BD00001B02D1678387FB
S31587801F10255E8387D9F800206946926CA1F5804132
S31587801F208A420BD8D9F80020D9F80030926CDB6CBE
S31587801F301A44914202D2521A2CF035B87047000063
S31587801F4008B5FEF7F6FE10EE103FC3F30313072B93
S31587801F500BD111EE303F5A0607D443F0400301EE8A
S31587801F60303FBFF34F8FBFF36F8FFFF76BFD1E2217
S31587801F7006490020FFF718FDBDE808401E224FF46A
S31587801F8000314FF41000FFF70FBD00BFFFFF0F0032
S31587801F9008B5BFF35F8F4FF077332C490B60BFF35C
S31587801FA05F8F4B60BFF35F8F294A1360BFF35F8F65
S31587801FB05360BFF35F8F00230B64BFF35F8F4B64E0
S31587801FC0BFF35F8F8B64BFF35F8FCB64BFF35F8F06
S31587801FD00B65BFF35F8F1364BFF35F8F5364BFF364
S31587801FE05F8F9364BFF35F8FD364BFF35F8F136510
S31587801FF000F02CFAC0F30730652819D1BFF35F8FBD
S315878020004FF07732134B1A60BFF35F8F5A60BFF3F7
S315878020105F8F00221A64BFF35F8F5A64BFF35F8F27
S315878020209A64BFF35F8FDA64BFF35F8F1A6508BDE3
S3158780203000F00CFAC0F307306228DFD000F006FA8A
S31587802040000B00F0F0007028F1D1D7E700C00702B7
S3158780205000C0170200C0270210B500F0F7F9C0F359
S315878020600730642805D000F0F1F9C0F3073065287A
S3158780207015D1164CBFF35F8F0023154A1381BFF3A3
S315878020805F8F4FF00372138100F0E0F9C0F307305A
S31587802090622806D1BFF35F8F0023238110BD0D4C45
S315878020A0E8E700F0D3F9C0F307306428F2D000F070
S315878020B0CDF9C0F307306528ECD000F0C7F9000B5F
S315878020C000F0F0007028E9D1E4E700BF00401E02E7
S315878020D000C00B0200802802044A1368BFF35F8F13
S315878020E023F00103BFF35F8F1360704700800D0273
S315878020F0BFF35F8F074B18645A6CBFF35F8F28B126
S3158780210042F08052BFF35F8F5A64704722F08052C5
S31587802110F8E700BF00800D0270B50C46064600F0D2
S3158780212095F9000B00F0F00060280CBF4FF4C4656A
S315878021304FF4C86500F08AF9000B00F0F00005F1CE
S315878021400675702805F5703513D1012E23D12B6A34
S31587802150BFF35F8F1A0E22701A0C62701A0AA270EA
S31587802160E3702B69BFF35F8F1A0E22711B0C637125
S3158780217070BD00F06BF9C0F307306228E5D000F0B8
S3158780218065F9C0F307306428DFD000F05FF9C0F3C4
S3158780219007306528D9D02B69BFF35F8F1A0A2270DB
S315878021A063702B68BFF35F8F1A0EA2701A0CE2706A
S315878021B01A0A2271DBE700000C4B0EEE103FBFF345
S315878021C05F8F0B4A13621368BFF35F8F23F4407365
S315878021D043F4817343F00103BFF35F8F002013605D
S315878021E0C9F8BC00C9F8B800704700BF00127A00EA
S315878021F000C01D0253EC0E2FC9F8BC201046C9F8C3
S31587802200B830194670472DE977480646FFF7F2FFBB
S315878022101EEE102F4FF47A74A0FB04BC04FB01C317
S3158780222000251C469C4654EA0503CDE900BC114629
S3158780223008D1584630F092ED00900098801B03B005
S31587802240BDE8708868462BF007FDF6E72DE9F04CE8
S3158780225085B01EEE101F0023224A234CE1FB002304
S31587802260A2FB0467104619463A4600230025E4FBFD
S3158780227001230024DFF874C0CDE90045A0FB0C67F5
S31587802280941953EB0705CDE9024503D3012300242F
S31587802290CDE90034DDE900340027039E23433246A7
S315878022A008BFDDE900453B46ECFB01231CBF0024C4
S315878022B00125CDE90023FFF79DFFDDE90023A418DB
S315878022C043EB0505A40C44EA853313EB000A47EBF9
S315878022D0010BFFF78FFF594508BF5045F9D305B0E6
S315878022E0BDE8F08C3F420F00DB34B6D782DE1B43D6
S315878022F01EEE100F704700002DE9F04D002705462A
S31587802300BB464FF07C0ADFF8588058F82B401CB1C3
S31587802310083454F8080C78B9BBF1000F09D025B179
S315878023200B220E49681EFEF74BFE07F10A00BDE8B1
S31587802330F08D4FF0010BE8E72CF028FB06464DB170
S31587802340024654F8081C2846FEF73AFEAB195D1CF0
S3158780235083F800A001363744DAE700BF3868838779
S3158780236050778487012A2DE9F04117461E4604DC7B
S315878023704FF0FF352846BDE8F0811B4DD3F80480A2
S315878023802C683CB1206828B141462CF0D6FA68B1D2
S315878023900834F7E76C68002CEAD020680028E7D0F5
S315878023A041462CF0CAFA08B10834F6E7002CDFD00C
S315878023B0032F16D10D49B0682CF0BFFA0546002841
S315878023C0D6D16068FFF794FE002DD3D06568002D3F
S315878023D0D0D000231A4619461846FFF7B1FA00254A
S315878023E0C8E70125EDE700BF507784879B7683878B
S315878023F038B50B4C0546206918B10BF0DDFE0023F6
S315878024002361084B084A00201D605A60FFF774FFD6
S315878024100BF084FF054610B1FFF76EFF256138BD47
S315878024202C63848750778487DC3F8387064B5868FD
S31587802430BFF35F8FC0F38113012B0CBFC0F3C1201D
S315878024404FF0FF30704700BF00800D02234AD2F8D5
S315878024508002BFF35F8FC0F30743602B3CD0D2F8EF
S315878024606002BFF35F8F4FF420035968BFF35F8F96
S31587802470C0F30743612B01F003011CD1002908BFF4
S315878024806623C0F3072242B1632B01D06A2B04D11E
S31587802490012914BF69236823013A632BC0B201D00F
S315878024A06A2B02D1052808BF0320013200EB021070
S315878024B040EA03307047632B03D1012908BF6A231B
S315878024C0DFE7652BDDD1064A1268BFF35F8F12F08F
S315878024D0400F18BF6B23D4E70021D2E700800C0218
S315878024E01C800D0210B5314BD3F84044BFF35F8F04
S315878024F0FFF7ACFFC0F307306428C4F3014407D1E4
S31587802500012C01D12A4810BD022C4BD00020FAE736
S31587802510FFF79CFFC0F30730652809D1012CF1D0DE
S31587802520022C01D12348EEE7032CEFD12248EAE734
S31587802530022C39D0032C1BD0012CF3D1FFF786FFD1
S31587802540C0F30730632811D0FFF780FFC0F30730C9
S315878025506A280BD0FFF77AFFC0F30730692805D042
S31587802560FFF774FFC0F307306828DBD11348CAE7C3
S31587802570FFF76CFFC0F30730632811D0FFF766FF3C
S31587802580C0F307306A280BD0FFF760FFC0F30730A8
S31587802590692805D0FFF75AFFC0F30730682803D12B
S315878025A00748B0E70748AEE70748ACE700C01B0295
S315878025B000A4781F00F6342F00E9A435007DC83241
S315878025C0008C8647001E7C2900C15D3B104BD3F863
S315878025D08034BFF35F8FC3F3811338B131B1032B57
S315878025E006D16FF0270202607D220A6018467047FF
S315878025F0022B04D16FF0270202606922F5E7012B4F
S3158780260002D16FF01302F7E7002202605F22ECE7C0
S3158780261000C01B0208B5FFF719FFC0F30733662B87
S3158780262004D1C0F30B0040F4C22008BD6A2B04BFD7
S31587802630C0F30B0040F4C620F7E7000070B5294B3E
S3158780264006460C46D3F84051BFF35F8FFFF7FEFEF1
S31587802650C0F30730672801D1002070BDB4F5357F78
S3158780266034D940F2AA539C4232D81F49A4F52F7297
S31587802670A2FB0123D8081B4AD2F87031BFF35F8F3C
S3158780268023F07C53BFF35F8F012EC2F8703123D03E
S3158780269020D3022E22D109231F21994001EA0502E0
S315878026A0DA409042D8D025EA010500FA03F32B4316
S315878026B0BFF35F8F801A00280A49B8BF4042C1F8A6
S315878026C0403100EB40002CF08FFAC5E70020D2E737
S315878026D01F20D0E70023DFE71223DDE76FF01500A1
S315878026E0BBE700BF00800C021F85EB5110B5FFF753
S315878026F04FFC5D4B5C68BFF35F8FFFF7A7FEC0F328
S315878027000730622840F0848024F48034BFF35F8F5B
S31587802710554B5C60554CD4F85031BFF35F8F1B06A1
S31587802720F9D5BFF35F8F0823C4F85431FFF78EFE40
S31587802730C0F3073065280BD14D4BD3F88034BFF370
S315878027405F8F1B0903F07003BFF35F8FC4F8543123
S31587802750FFF77CFEC0F3073064281DD0FFF776FE2F
S31587802760C0F30730652817D0002000F03BFB414B2C
S31587802770984211D13C4C00F05FFA6369BFF35F8F53
S315878027803D4A23F4E053A0FB02010A0D013A43EA4E
S315878027908223BFF35F8F6361FFF758FEC0F30730ED
S315878027A064280AD1FFF752FEC0B210284FD0BFF3F4
S315878027B05F8F4BF6A002314B1A60FFF747FEC0F357
S315878027C00730652808D12E4A1368BFF35F8F43F099
S315878027D00303BFF35F8F1360FFF738FEC0F30730BD
S315878027E0602801BF204AD36943F04003D361FFF74E
S315878027F033FCFFF72BFEC0F30730622801BF1A4AE6
S31587802800536A43F040035362FFF766FC002010BD8E
S31587802810FFF71CFEC0F3073064283FF475AFFFF7D8
S3158780282015FEC0F3073065283FF46EAFFFF70EFEBF
S31587802830C0F3073060283FF467AFFFF707FEC0F322
S31587802840073067283FF460AF24F440345EE70D4A4B
S315878028501368BFF35F8F23F4A05343F48063BFF37A
S315878028605F8F1360A9E700BF00400C0200800C02CF
S3158780287000C01B02007B9A17239A08029C020E02CD
S3158780288000000B0210000B0208B5FFF7CFFD00286A
S3158780289003DBBDE8084000F032BD012008BD00207B
S315878028A0704708B5FFF7C2FD002803DBBDE80840FF
S315878028B0FFF7F5BF002008BD08B5FFF7C7FDC0F352
S315878028C00730672804D040F297410120FFF7B6FE8C
S315878028D0002008BD7047000008B5FFF7B7FDC0F335
S315878028E00730622839D0FFF7B1FDC0F307306428F7
S315878028F033D0FFF7ABFDC0F3073065282DD0FFF7C0
S31587802900A5FDC0F30730672827D01E4B9A69BFF38A
S315878029105F8FC2F34153022BC2F3814225D0022AAD
S315878029201ED0012B1AD0012A18D0032B164B01D023
S31587802930032A23D1BFF35F8F4FF08031134AC2F8C2
S31587802940F410BFF35F8FC2F80431BFF35F8FC2F88D
S31587802950F810BFF35F8FC2F8083108BD0A4BE9E7E5
S31587802960012B07D14FF08023E4E7012AFAD04FF075
S315878029708023DDE7032BF5D04FF0802343F40003D4
S31587802980D8E700BF00400C028080008000800C0260
S3158780299010B5054B1B685C69FFF77AFAC4F301218A
S315878029A0013130F0DCE910BD282F848738B5234B79
S315878029B0234A196844F21003CB584C6A5B0003F0AC
S315878029C00603143353431F4AA3FB02239D08FFF74D
S315878029D03DFDC0F3073060280BD1194B14F0400FAB
S315878029E018BF1D4604F03F010131284630F0B6E90D
S315878029F038BDFFF72BFDC0F307306228EDD0FFF790
S31587802A0025FDC0F307306928E7D0FFF71FFDC0F3A0
S31587802A1007306828E1D0FFF719FDC0F307306428AF
S31587802A20DBD0FFF713FDC0F307306728D5D0FFF7D4
S31587802A300DFDC0F307306528D4D1CEE7282F84874C
S31587802A4000366E01ABAAAAAA022837B50C461B4D5B
S31587802A5029D0FFF7FBFCC0F30730642801D0FFF746
S31587802A60F5FC2B6803F58242156844F230029A5842
S31587802A70520002F00202E1001224002002F11403C0
S31587802A800F4A5A43A2FB042304FB003302A860E95A
S31587802A9002233F238B401D4025FA01F12BF0DCF87A
S31587802AA0009803B030BD44F2F0022B689D5844F2FB
S31587802AB010029A58520002F00602DCE7282F848794
S31587802AC000366E0170B5204B06461B68DD695C6AE9
S31587802AD0FFF7BCFCC0F30730642820D1012E25D8A8
S31587802AE0FFF7B4FCC0F30730672801D1032E1DD0CA
S31587802AF0022E1DD0032E20D0012E19BFC4F3C224E7
S31587802B0005F48035C4F3024405F40035D5B1002138
S31587802B100120FFF799FF611C30F020E907E0FFF776
S31587802B2095FCC0F307306528DAD1D7E7002070BDDA
S31587802B30C4F3C24405F48025E8E7C4F3825405F4D8
S31587802B400025E3E70221E3E7282F8487054B1A6868
S31587802B50136F18B143F440531367704723F4405378
S31587802B60FAE700BF282F848738B50546FFF76EFCBE
S31587802B70C0F3073065280D4C08D14FF4405223683F
S31587802B80683319687DB10A431A6038BDFFF75EFCE2
S31587802B902368C0F30730642807BF743330226C33C9
S31587802BA04FF44062EDE721EA0202EDE7282F84871A
S31587802BB0032938B5044602D96FF0150038BD0ED083
S31587802BC003231C4A4900126806318B40116F18B15E
S31587802BD0194311670020F1E721EA0301F9E7FFF737
S31587802BE035FCC0F307306728E6D0FFF72FFCC0F3A4
S31587802BF0073062280F4D08D14FF040712B6880339C
S31587802C001A689CB10A431A60E4E7FFF71FFCC0F392
S31587802C1007306428F0D0FFF719FCC0F307306528A2
S31587802C20EAD02B684FF440716C33E9E722EA0102D8
S31587802C30E9E700BF282F848710B51E4B1B685A6922
S31587802C4012F0007418D0C2F3C2649A69C2F3013253
S31587802C503AB1022A184888BF0020611C30F07EE886
S31587802C6010BD44F210029858400000F0060000F12B
S31587802C70140311485843F0E79869C0F381400228C6
S31587802C800ED003280FD0012806D044F230029858F8
S31587802C90400000F00200EAE70221FFF7D5FEDCE775
S31587802CA021460120F9E702210120FFF7CDFE400862
S31587802CB0D3E700BF282F848700366E0110B50B4B6C
S31587802CC01B685B695A06C3F302440BD51B0647BF4D
S31587802CD00121022002210120FFF7B6FE611C30F018
S31587802CE03EE810BDFFF7A8FFF8E700BF282F848747
S31587802CF0032970B506460C4602D96FF0150070BD5C
S31587802D00244BD3F8E050BFF35F8F98B925F0030142
S31587802D102143CB0401D400292CDB21F48051BFF3D6
S31587802D205F8F1C4B1C4AC3F8E010013A1CD16FF0A9
S31587802D306D00E4E70128E0D1FFF788FBC0F3073011
S31587802D40622804D125F00C0141EA8401E1E7FFF787
S31587802D507DFBC0F307306428F4D0FFF777FBC0F399
S31587802D6007306528EED0C8E7D3F8E000BFF35F8FDA
S31587802D700028DADA56B941F4005121F48031BFF35D
S31587802D805F8F044B0020C3F8E010B8E741F48011C9
S31587802D90F3E700BF00800C02A1860100FFF706BE1D
S31587802DA00F4B1A69BFF35F8F002A18DBBFF35F8FDC
S31587802DB04FF480525A61BFF35F8F8022C3F87821A0
S31587802DC01A69BFF35F8F002AFADABFF35F8F4FF4F2
S31587802DD080329A61BFF35F8F4FF400525A61704792
S31587802DE000800C022DE9F0410146102800F291817E
S31587802DF0DFE810F01100230027002B002F006600E4
S31587802E006A00AC00B000D000840189018B018D01F6
S31587802E1027008F012F00C14BC1481B68196903F5AD
S31587802E2080431B6801F0070103F07F035843013114
S31587802E3040082FF094EFBDE8F081BDE8F041FFF7B9
S31587802E40FBBEBDE8F041FFF723B8BDE8F041FFF749
S31587802E509FBDB24B1B68DC69FFF7F8FAC0F3073072
S31587802E60672803D1620625D5AD48E4E7FFF7EEFAF2
S31587802E70C0F307306028F5D0FFF7E8FAC0F307304C
S31587802E806228EFD0FFF7E2FAC0F307306928E9D0E6
S31587802E90FFF7DCFAC0F307306828E3D0FFF7D6FA66
S31587802EA0C0F307306428DDD0FFF7D0FAC0F3073048
S31587802EB06528D7D0FFF76CFD04F03F010131B8E76D
S31587802EC0BDE8F041FFF772BD944D2B689E6BFFF787
S31587802ED0BDFAC0F30730C6F3C544692804F10104F7
S31587802EE004D1730326D521468D48A2E7FFF7AEFA2C
S31587802EF0C0F307306828F4D0FFF7A8FAC0F3073005
S31587802F006028EED0FFF7A2FAC0F307306228E8D0B0
S31587802F10FFF79CFAC0F307306428E2D0FFF796FA6A
S31587802F20C0F307306728DCD0FFF790FAC0F3073005
S31587802F306528D6D044F210032A687948D358E100A9
S31587802F405B0003F006031433584372E7BDE8F0410C
S31587802F50FFF7B4BE714B1B68D969C1F3C254C1F3FD
S31587802F604171022912D003290FD0012903D0FFF797
S31587802F70A5FE611C5DE744F210029858684B4000B5
S31587802F8000F0060014305843F3E700210120FFF74D
S31587802F905BFDEEE7614F3B68D3F818805E69FFF784
S31587802FA055FAC0F30730622818D116F08064C6F3C5
S31587802FB0C2053FD0FFF74AFAC0F30730602806F08C
S31587802FC0070408F48013564825D17BBB3A6844F2B8
S31587802FD01003D3585B0003F0060325E0FFF736FA24
S31587802FE0C0F307306428E0D0FFF730FAC0F30730A4
S31587802FF06528DAD0FFF72AFAC0F307306028D4D05D
S31587803000FFF724FAC0F307306728CED0FFF714FE80
S31587803010C6F3C24152E73A68002BD8D044F23003D0
S31587803020D3585B0003F0020314335843691C2FF08F
S3158780303096EE9EE7C8F34150022812D0032813D014
S3158780304001280AD044F230033A68D058400000F00D
S31587803050020000F114033248E7E70221FFF7F4FC08
S31587803060E4E721460120F9E7FFF7F0F9C0F3073057
S31587803070602805D102210120FFF7E6FC4008D5E7C5
S3158780308044F2701239688B588A589B0D03F0020375
S31587803090C2F3C0321343012B2CD0032B0CBF0427DA
S315878030A0012744F27003CE5816F400501ED016F4CA
S315878030B0803021D101F58142D2F800C044F2900256
S315878030C08958C6F3C142032A10D04FF00108C2F14E
S315878030D00202604608FA02F82FF040EE06F07F0675
S315878030E00F4B3044414658432FF038EE39462FF000
S315878030F036EE9BE70227D4E70948F7E70020BDE845
S31587803100F041FFF7DFBC0120F9E70220F7E70320CC
S31587803110F5E704482CF0B5FB00208CE6282F8487BA
S3158780312000366E0181C783870320FFF75BBE000069
S3158780313070B5594E594D3368594C03F58043186895
S3158780314000F07F0068434008A0FB04015548890C3E
S315878031502CF097FB44F230033268D058400000F059
S31587803160020014306843A0FB04014F48890C2CF079
S3158780317088FB44F210033268D058400000F006007E
S3158780318014306843A0FB04014848890C2CF079FBEE
S3158780319044F2E0033268D05800F00300431C03EB07
S315878031A0500343485843A0FB04014248890C2CF0BE
S315878031B068FB41482CF065FB0020FFF713FE3F4CE8
S315878031C0A0FB04013E4889092CF05BFB0320FFF7AF
S315878031D009FEA0FB04013B4889092CF052FB052098
S315878031E0FFF700FEA0FB0401374889092CF049FBCD
S315878031F00220FFF7F7FDA0FB0401344889092CF0EC
S3158780320040FB0720FFF7EEFDA0FB040130488909C4
S315878032102CF037FB0920FFF7E5FDA0FB04012D483D
S3158780322089092CF02EFB0A20FFF7DCFDA0FB040121
S31587803230294889092CF025FB0B20FFF7D3FDA0FBB6
S315878032400401264889092CF01CFB0C20FFF7CAFD50
S31587803250A0FB0401224889092CF013FB0D20FFF778
S31587803260C1FDA0FB04011F4889092CF00AFB0820B1
S31587803270FFF7B8FDA0FB04011B4889092CF001FBE9
S315878032800420FFF7AFFDA0FB0401184889092CF0BD
S31587803290F8FA002070BD00BF282F848700366E011C
S315878032A083DE1B43DE948387F294838706958387A1
S315878032B040787D011A958387C5CC8387D34D6210E5
S315878032C02E95838742958387569583876A95838745
S315878032D07E95838792958387A6958387BA958387F5
S315878032E0CE958387E2958387F69583870A968387A4
S315878032F010B54C46FEF7E4FDE063002010BD7047AD
S3158780330008B502210248FEF749FC002008BD00BFA8
S315878033101031838708B50F4AD9F800300E495A6429
S3158780332044F204028B58002023F4C82343F4C02335
S315878033308B500121FFF7DCFC48B901210846FFF74E
S31587803340D7FC20B9FFF710FC0120FFF70DFC002082
S3158780335008BD00BF0001008000000E0208B50A483C
S31587803360FFF746F8FFF772F8C0F307306B280CBF74
S3158780337006490749074806F07FFE0749074806F04A
S315878033807BFE002008BD00BFE83183874A6083873C
S315878033905D608387526083876360838769608387FD
S315878033A008B5FFF753F8C0F307306B280CBF03487F
S315878033B003480AF029FD002008BD00BF9E668387E3
S315878033C0B76683870346084611461847012A70B52C
S315878033D0164619DD1C46102254F8040F00212CF05E
S315878033E0D9FA054601460A482CF04BFA2246711EC1
S315878033F02846FFF7E7FF041C0146064818BF0124C5
S315878034002CF03FFA204670BD4FF0FF34FAE700BFB5
S3158780341087868387AF8683872DE9F04502F1FF38D4
S31587803420B8F1000F87B006460F4615461C4603F14E
S31587803430040A31DD1022586805A92CF0ABFA059B62
S315878034401A784AB33A2A27D0232A25D009221749B8
S3158780345060680CF088FAAA1E04F1080370B1C16807
S315878034601348012908BF072111F0010F0BD1D0F826
S315878034708C40A14207DC0F482CF003FA4FF0FF30CF
S3158780348007B0BDE8F0850024019002940091394603
S31587803490304608F0C5FDF3E701230293044B424685
S315878034A0019340F21F7300935346F0E7B8328487BF
S315878034B07C7F8487A977838710B50C46034806F077
S315878034C02BFF2146BDE810400CF0B6B9A3768387DB
S315878034D038B50446014618482CF0D3F920460BF0B8
S315878034E075FD0128054622D114480AF08DFC22688D
S315878034F0134B9A4204D013480AF086FC284638BD77
S3158780350020460BF09BFB08B90F48F5E720460BF062
S31587803510C9FC0E480AF078FC20460BF0A4FB08B954
S315878035200B48E9E70B480AF06FFC0025E6E70A486F
S315878035300AF06AFC0125E1E7A0B88387C1B883874B
S3158780354027051956D8B88387EDB8838705B98387C2
S3158780355020B9838731B9838735B98387012A70B53F
S3158780356005DCBDE870400B4B1868FFF7B1BF0025B7
S315878035701E1D03EB82041022002156F8040B2CF0C3
S3158780358009FAFFF7A5FF002818BF0125A642F2D1C1
S31587803590284670BDD44E848773B505460D480E463A
S315878035A006F0BAFE10B9002002B070BD0A492BF02A
S315878035B0C4F904460028F6D1084BCDE9006019681E
S315878035C007482CF05EF96B46012221462846FFF78D
S315878035D023FFE9E77D65838787658387D44E8487DD
S315878035E08B65838737B5074D074CCDE90023641BE9
S315878035F00B460649A4100246614328460CF010FA0A
S3158780360003B030BDD8628487406C8487B76DDBB65C
S3158780361000B5B3B0C822694600202AF0EBF92CF0B2
S3158780362030F905480AF0F0FB04480AF0EDFB0020E4
S3158780363033B05DF804FB00BFCD9883870599838770
S3158780364038B504461A4818F0BFF8054620460BF069
S31587803650BDFC012829D12268164B9A4204D0164888
S315878036600AF0D2FB012038BD20460BF0E7FA08B96D
S315878036701248F5E72DB120460BF0F5FA08B91048C0
S31587803680EEE7A37F062B01D00E48E9E7216C04F18C
S31587803690400009BA09B90C48E2E702680430002A73
S315878036A0FBD1BDE838400CF0CEB80848D8E700BFD4
S315878036B0ABBA838727051956B2BA8387C4BA8387F5
S315878036C0D4BA8387E2BA8387F2BA838700BB838734
S315878036D0012A10B50FDD1022002158682CF05AF97F
S315878036E00446214605482CF0CCF82046BDE8104094
S315878036F00021FFF7A5BF4FF00244F2E7CA9683877A
S315878037000B460822014601482CF0BBB875D08387C3
S3158780371010B5D9F800402248216CFFF7F1FF616C1C
S315878037202048FFF7EDFFE36C5BB100211E48FFF76A
S31587803730E7FFA16C1D48FFF7E3FFE16C1C48FFF7A5
S31587803740DFFFD9F808101B482CF09BF81A48D9F860
S31587803750D010FFF7D5FF1948D9F83810FFF7D0FF73
S315878037601748D9F84C10FFF7CBFF1648D9F844107D
S31587803770FFF7C6FF1448D9F84810FFF7C1FF4FF403
S315878037800052D9F8A41011482CF07BF8D9F8642018
S3158780379022B1D9F864100E48FFF7B2FF002010BD1A
S315878037A0FD75838709768387157683871F768387D3
S315878037B02876838730768387467683874F7683870F
S315878037C059768387637683876A7683877476838752
S315878037D092768387012A2DE9F04106460F4611DDC9
S315878037E0541E0A490222586803F104080CF0BBF874
S315878037F040B1C5684346224639463046AC46BDE821
S31587803800F04160474FF0FF30BDE8F081043484870C
S31587803810032A38B51C4616D10022586811462CF0E3
S31587803820B9F8002205461146A0682CF0B3F80446FD
S315878038300146284610F03EFF2A46214603482CF04B
S3158780384020F8002038BD4FF0FF30FBE79D5F8387E8
S3158780385000B589B003A810F05BFF079B03A9019386
S31587803860069B044800930EC92CF00BF8002009B0FC
S315878038705DF804FBCD5F83872DE9F04D002486B004
S3158780388005464348CDE9024406F046FD06461EF0C6
S31587803890B7FE0122DFF818A1DFF80881DAF83C3015
S315878038A001920094D3F8984004AAD8F80030394911
S315878038B02846A0470446D3461EF08EFE24B1364E50
S315878038C0304606B0BDE8F08D049BC3E90644002EDA
S315878038D05BD04FF0FF31304625F0A0FF471C022191
S315878038E03846049C0AF02AFF049BE061DC6994B918
S315878038F02A482BF0C6FF1EF083FEDAF83C30D8F8CC
S315878039000020D3F89C60234923462846B0471EF07B
S3158780391063FE234ED4E706A840F8044D4FF0FF3266
S31587803920314625F0E8FF049B7F009F611EF068FE85
S31587803930DBF83C301B4AD3F89C6012680023154914
S315878039402846B04706461EF047FE002EB8D11EF0A1
S3158780395057FE02A903AA28461FF09AFF06461EF03D
S315878039603BFE26F0004110482BF08BFF3EB1039932
S3158780397029B10E482BF085FF039824F071F81EF045
S31587803980F1FF20460AF018FC9AE73446CEE700BF57
S31587803990B17C83874030838702000080187783874E
S315878039A009000080C4B884872E7783875277838778
S315878039B0C00680872DE9F0450446D3B04FF49872C8
S315878039C0002106A8FDF7ACFA002C3AD16D4E6E4FD2
S315878039D000E00134336C9C4218D2142303FB04F530
S315878039E0716C1022294438462BF059F80028F0D17B
S315878039F0736C2B44597C1A7C42EA0122997CDB7C46
S31587803A0042EA014252EA036340F0B9805F4806F092
S31587803A1083FC58B95E4806F07FFC38B95D482BF041
S31587803A2030FF5D4C204653B0BDE8F08510220021DB
S31587803A302BF0B0FF20B959482BF023FF584CF1E77C
S31587803A400446204627F0EAFF054608B15548F3E73E
S31587803A50204628F02FFD40F6FF7607464FF0000A6E
S31587803A60DFF85C81AF423BDC40F6FF700021D9F8F6
S31587803A700030D9F800209B6CD26C002A626808BF18
S31587803A804FF0FF3312BA02F54052861841F100078C
S31587803A90350B45EA075500272E0303F1FE6333442A
S31587803AA0CDE904372A4604AB0421012023F00EFF93
S31587803AB000283DD031464FF480500AF0F5FF04AB9D
S31587803AC0CDE904072A460421012023F0FFFE78B337
S31587803AD035482BF0D6FE35482BF0D3FE344CA1E7FC
S31587803AE004AB02AA2946204628F0C5FCF0B9DDE951
S31587803AF004230146DDF808C09219CCF30B0E43EBFD
S31587803B000A0312EB0E0240EB0303120B0CEA080042
S31587803B1042EA0352019100911B0BCDE9020123F002
S31587803B204BFD18B1294623482BF0ABFE013599E723
S31587803B30049F6268214612BA3846FDF741FA002308
S31587803B402D0505F47F0545EA1665360A06F47F4610
S31587803B5035437D60049C1A46214606A80BF08AFD6C
S31587803B6008B1154868E72146074820F05FFA04467A
S31587803B7000283FF457AF11482BF083FE52E704465F
S31587803B8050E700BFC0068087003083878B9D8387F9
S31587803B90949D8387A39D83870E000080BC9D8387A2
S31587803BA001000080E99D83872E9E8387569E838723
S31587803BB009000080059E83876C9E8387929E838774
S31587803BC000F0FFFF0023F0B585B002931F4B0646B2
S31587803BD018680F4610B11E4B196891BB0023324671
S31587803BE0CDE90073184621F0FBFC054602A81EF036
S31587803BF099FF0446D0B92A461649029820F0C0F81C
S31587803C00044698B91EF0FCFC03AB134901930097D1
S31587803C1033462A460968002020F0E4FA04461EF0D7
S31587803C20DBFC1CB90398FFF727FE0446029808B188
S31587803C301FF082FB15B1284623F012FF204605B078
S31587803C40F0BD21F04DFB0546DCE700BF58778487BA
S31587803C505C778487902F8387C4B88487012A73B5D6
S31587803C6015461C4603DC4FF0FF3002B070BD24F04A
S31587803C70C9F930B120F000411F482BF002FE0120A0
S31587803C80F3E7022D04D001461022A0682BF082FE2E
S31587803C90FFF790FE194B05469842E4D00028EED16F
S31587803CA0174960682AF049FE70B901A81EF008FC9A
S31587803CB018B114482BF0E5FDE1E70198FFF7DCFDA5
S31587803CC0003018BF0120D0E70F48666806F024FBCE
S31587803CD0044620B1102229462BF05CFE044610222A
S31587803CE0002130462BF056FE10B93378302BBAD167
S31587803CF02146FFF767FFE3E7AB768387020000807D
S31587803D00DE768387E67683870F7783872DE9F04507
S31587803D10074688469246144D144C85B0286823F00A
S31587803D209FFE03AE206823F09BFE3846009602AB43
S31587803D305246414621F0D6FC274680B9029B039C92
S31587803D402B603CB1324602A9204621F09BFC204657
S31587803D5023F086FE039B3B6005B0BDE8F085002394
S31587803D602B602360F8E700BF587784875C778487E2
S31587803D702DE9F0451E1D98460123214C87B0551E97
S31587803D800293CDE900342A46334682460F4608F0A9
S31587803D9047F965B91B4B1B68236605AA04A9206E5C
S31587803DA0FDF71AFC58B1012007B0BDE8F0851022CF
S31587803DB00021D8F804002BF0EDFD2066EDE7DDE9DC
S31587803DC00432216ED21A10482AF0EDF832462946F7
S31587803DD0384608F0EDF80028E5D108F01FF9052365
S31587803DE084F85E30012302934FF4E2630194009353
S31587803DF02A4633463946504608F012F9D4E700BF3B
S31587803E007C7F8487D44E84870C80848710B50B49C2
S31587803E1004462AF092FD68B1094920462AF08DFD2D
S31587803E2050B1084920462AF088FD003018BF012006
S31587803E30404210BD0220FCE70120FAE7A2CC8387A7
S31587803E407FD583875F768387012A10B519D0022A23
S31587803E5003D04FF0FF34204610BD5868FFF7D6FF52
S31587803E600128044606D0022808D00028F1D1FDF71C
S31587803E70D9FDF0E7FDF7CDFD0024ECE7FCF744FF9D
S31587803E80FAE7FDF7DAFD044B0449002808BF19468F
S31587803E9003482BF0F6FCEFE7DA8883871427848735
S31587803EA0DE888387012A10B519D0022A03D04FF07E
S31587803EB0FF34204610BD5868FFF7A8FF01280446BF
S31587803EC006D0022808D00028F1D1FDF7F2FDF0E769
S31587803ED0FDF7B8FD0024ECE7FCF723FFFAE7FDF74B
S31587803EE0F8FD044B0449002808BF194603482BF080
S31587803EF0C8FCEFE7DA88838714278487747D83876E
S31587803F002DE9F7450BF01AFC0646194809F07CFF20
S31587803F10184F3468B44203D1002003B0BDE8F085DA
S31587803F2054F8442C144812F0010F14BF49232E23CA
S31587803F3012F0020F14BF4F212E210091A4F13C016C
S31587803F402BF09FFC0025DFF838A0A4F144085AF8A7
S31587803F502530434504D157F8251008482BF091FC26
S31587803F600135032DF3D10A2009F032FF2468D1E782
S31587803F703C7D8387D84E8487587D8387AC67838744
S31587803F80C4AB848700207047012A70B50E461446D5
S31587803F901D4615DD042258680B490BF0E4FCA21EEA
S31587803FA005F10803044658B14168914208DB3146DA
S31587803FB0C568A84701462046BDE870400CF03CB8E6
S31587803FC04FF0FF3070BD00BFD037848708B50EF0BD
S31587803FD011FC002008BD08B50EF0BAFB002008BD8D
S31587803FE008B50EF09DFB002008BD00002DE9F04D39
S31587803FF0012792469B463E46DFF86080564506DB1C
S3158780400017B10A2009F0E4FE0020BDE8F08D012E65
S315878040105BF8264002DD202009F0DAFE41462046FD
S315878040202AF04AFD0546A8B1002720462F7009F059
S31587804030EBFE2C465C2304F8023B414620462AF059
S315878040403BFD05460028F0D1204609F0DDFE2F4648
S315878040500136D3E7204609F0D7FEF9E7E47D8387E3
S315878040602DE9F04D03790446022B38D100264FF08F
S315878040703808076A0744238F08FB06759E4209DB43
S31587804080638AA069152B03D1236BDB0700D500686C
S31587804090BDE8F08DD5E9082352EA0301D5F818A043
S315878040A004D0A96850462144FCF78AFFD5E908BC25
S315878040B0D5E90A239C4508BF934506D0A2EB0B0218
S315878040C000210BEB0A00FCF72BFFA96A2AF03F0039
S315878040D03F3121F03F01FDF747FC0136CBE70026CC
S315878040E0C7690744A38D07EB4615B34201DCA069F0
S315878040F0CEE72A69D5F80C8022B169684046214483
S31587804100FCF75EFF28696A69904204D0121A0021FB
S315878041104044FCF705FF696928F03F003F3121F06D
S315878041203F01FDF721FC0136DCE7000008B5084B27
S31587804130026801469A4204D006482BF0A2FB0020EB
S3158780414008BD038A022B01D00348F6E70120F7E7EB
S315878041507F454C46542D8487782D84872DE9F04D6D
S31587804160174686B065481C4606F0D6F87E1E002E12
S31587804170834604F1040840DD65682B782D2B3AD178
S315878041806B78702B01D0732B35D1BE1E002E04F130
S31587804190080833DD05AA1021D8F800002BF022FC09
S315878041A016302BD0013E08F104080598FFF7BEFF2D
S315878041B0002800F0A180059C25B36B78702B21D1D0
S315878041C02046FFF74DFF0590BBF1000F40F08B80AF
S315878041D005994B482BF055FB41463046059B9847BA
S315878041E0041C0146474818BF01242BF04AFB20460A
S315878041F006B0BDE8F08D0025CCE70025424B1B68CD
S315878042000593D2E72379022B46D000274FF0280AD9
S31587804210238E9F4244DBA36936E0A56A254405EB56
S315878042208A15AB6803F00203CDE90237DDE90223FD
S3158780423013431CD0D5E90423CDE90023134316D035
S31587804240D5E9082352EA030111D0696808291DD167
S3158780425000210098FCF764FE29692B6A21F03F00CC
S31587804260C9183F3121F03F01091AFDF77DFB0AF115
S31587804270010AA38F9A45D0DB628AA369152A03D15F
S31587804280226BD20700D51B6805939DE7A96900989D
S315878042902144FCF795FEDFE74FF0000A5746E8E7AB
S315878042A0256A25440AFB0755AB689B0714D5E868BA
S315878042B090B16A6982B16B68082B0FD10021FCF7B0
S315878042C02FFEE9686B6921F03F0019443F3121F061
S315878042D03F01091AFDF748FB013799E72969214488
S315878042E0FCF76EFEEDE7094958462AF026FB044619
S315878042F000287FF46DAF7AE7012478E77D65838729
S315878043005A77838782778387D44E84872FB58387A7
S31587804310F0B5012AA1B016461C460EDC6D4B1D688A
S315878043206D4809F071FD6D4805F0F6FFE8B96C4870
S315878043302BF0A7FA012021B0F0BD10220021586802
S315878043402BF028FB022E0546EAD1664960682AF05B
S31587804350F4FA0028E4D103202DF0DEF90028E9DD80
S31587804360294661482BF08DFADAE7102200212BF057
S3158780437011FB06465D4805F0CFFF0446002868D1C5
S315878043805B4805F0C9FF0446002800F09080014607
S3158780439068462AF09BFA20462AF0F8FA044655485A
S315878043A005F0BAFF0DEB04030246002800F08380F0
S315878043B0514918462BF058FA0444504805F0ACFF0B
S315878043C00246B8B14E490DEB04002BF04DFA0444F2
S315878043D04C4805F0A1FF0DEB0407002870D04948AB
S315878043E005F09AFF25F092FD474902BA38462BF0A9
S315878043F03BFA0444454805F08FFF024628B10DEB0A
S31587804400040043492BF030FA0444424805F084FF80
S31587804410024628B10DEB04003F492BF025FA044468
S315878044203E4805F079FF024628B10DEB04003C49EA
S315878044302BF01AFA04443B4805F06EFF074638B1DD
S3158780444001460DEB04002AF041FA38462AF09EFA97
S315878044506C4620462AF09AFAFF280246214638BFBC
S31587804460FF223046FCF7ACFD20462AF08FFAFF28DC
S31587804470014638BFFF213046FDF776FA3246314608
S3158780448029482BF0FEF92846FFF750FEE8B12846E3
S31587804490FFF7E6FD0546294624482BF0F2F9FDF716
S315878044A008FB0020A847224809F0AEFC42E721484E
S315878044B02BF0E7F973E7204918462BF0D5F97BE788
S315878044C01E4938462BF0D0F993E71D4809F09CFCA6
S315878044D0E1E700BFD44E8487B47B8387E27B83877B
S315878044E0EB7B8387777B83877C7B8387B17C83871B
S315878044F0167C8387447C83874D7C8387647C83878C
S315878045006B7C8387707C8387787C83877F7C8387B4
S31587804510887C83878E7C8387987C83879E7C83872A
S31587804520A77C8387AE7C8387BA7C8387017D838755
S31587804530257D83871E7C8387567C8387DBC9838794
S31587804540DB7C8387012A08B50ADD0A220021586821
S315878045502BF020FAC0F1FF2000F57F00FE3008BDE2
S315878045600020F7E713B50224009418F02BFA02B0DF
S3158780457010BD13B50224009418F044FA02B010BD1A
S3158780458013B50224009418F059FB02B010BD13B5F9
S315878045900224009418F080FB02B010BD13B5022464
S315878045A0009418F02FFA02B010BD13B50224009438
S315878045B018F044FB02B010BD13B50124009418F09F
S315878045C001FA02B010BD13B50124009418F01AFAC7
S315878045D002B010BD13B50124009418F02FFB02B0EA
S315878045E010BD0000F0B5012A99B01D4605DC10483C
S315878045F02BF047F9002019B0F0BD012403AB009456
S3158780460002AAA96868680CF0BFFA071E0BDB0298B6
S3158780461003A946681DF05AF838B13B463246696821
S3158780462004482BF02EF92046E5E71DF095F8E2E75A
S31587804630F67F83872180838770B50468054624B98A
S3158780464015482BF01EF9204670BD204627F0E6F9DF
S31587804650061E1FDA27F070FB014610482BF011F9EA
S315878046600A3611D1616909BA012903D802220C4811
S315878046702BF007F9A3691BBA112B05D9616911221A
S3158780468009BA08482BF0FDF807482BF0FAF800207E
S315878046902860D9E70120D7E792AC8387BDAC83872B
S315878046A0DBAC8387F3AC8387C5CC8387F1B143182B
S315878046B013F8013C0BB10A2B07D10D4A10F8013B41
S315878046C07BB1D35C13F0B70308D100210EE00129B3
S315878046D00CD00378002BF8D00139EFE70029FBDC73
S315878046E0F3E70029F3DC0CBF0121002108467047D8
S315878046F0845B83872DE9F84506460C46002963D077
S31587804700FFF7D4FF0546F0B1304809F07DFB0025D9
S315878047102F4FA54204DBBDE8F8452C4809F074BBCA
S31587804720002D02DD384609F06FFB304609F06CFBB9
S3158780473030462AF02BF90135054430462AF026F98A
S3158780474001300644E5E7A30727D1402C06DD2246BC
S315878047503146BDE8F8451F482BF093B81E482BF0A5
S3158780476090F8002CB8BF0334A410DFF87C80DFF87C
S3158780477084A0671EA54204DB1848BDE8F8452BF060
S3158780478080B856F82510BD42ACBF4246524609BA14
S3158780479013482BF076F80135ECE7402CD7DC1148A7
S315878047A02BF06FF8104FDFF84C80AC4201DC0F4856
S315878047B0E3E7621E9542ACBF3A464246715D0C4836
S315878047C02BF05FF80135F0E7BDE8F885F0CF838772
S315878047D0EDCF8387F2CF8387C6F98387DBF9838794
S315878047E002D083870BD083872D8E8387A91384876F
S315878047F00DD08387DBC98387024B014618600248C1
S3158780480005F064BC607B8487ABD683872DE9F04DC2
S31587804810012A92B090461F4602DC4FF0FF3627E08A
S315878048200222AA4958682AF093F80646002861D159
S31587804830B8F1020400F0FF84A549B8682AF07DF8AC
S3158780484000BBB8F1030407F10C0741D10124D9F8DD
S3158780485064300693069B0BB9012609E006A8FFF705
S31587804860EBFE0028F8D03CB106999A482BF009F8D8
S31587804870304612B0BDE8F08D2146974805F074FD25
S315878048800146F2E7B04608371022002138682BF0B8
S3158780489081F8054612A840F8305DFFF7CDFE0028DF
S315878048A0DAD0B8F1000F16D0069AC9F86420012CA1
S315878048B0DED01022002178682BF06CF806994A683A
S315878048C012BA90420BD2014684482AF0DAFFCFE7A4
S315878048D04FF00108D8E72846FFF78EFFE7E70246BD
S315878048E0084627F093FC0028C2D027F025FA014690
S315878048F07B48BBE77B4D2B682C461BB97A4809F0EA
S3158780490083FAA9E70222794978682AF021F8064648
S3158780491000283CD1B8F1030F7FF77FAF014610227D
S31587804920B8682BF037F828602846FFF785FE002879
S3158780493092D010223146F8682BF02CF8B8F1040F04
S31587804940824610D12B685B681BBA1A465146206807
S3158780495027F05CFC0646B0B127F0EEF90146604841
S315878049602AF08FFF78E71022314638692BF012F8C4
S315878049702A6801465268034612BA9042E5D25C4855
S315878049802AF07FFF68E75046FFF736FF70E70222F7
S315878049905849786829F0DCFFE0B9B8F1030F7FF7CB
S315878049A03CAFB9682868FC6827F06AFF011E04DA7D
S315878049B027F0C2F901465048D2E72246286827F071
S315878049C0FDFB002801DB002652E727F0B5F9014673
S315878049D04A48C5E778680378732B40F0E080B8F15A
S315878049E0030F7FF71AAFFB68B9682868029327F0A9
S315878049F047FFB0F1000ADBDBB8F1040F10D1002343
S31587804A000493049B029A009351463D4B206827F076
S31587804A1057FB0028D7DA27F08FF9014639489FE771
S31587804A20029A514604AB286827F09CFE049A014671
S31587804A30B2F5806F02DD1146334891E710B1304871
S31587804A40FCF7BEFA00253B69049506931A7807F129
S31587804A5010063C2AA8F104085CD15A1CDFF8A0B05E
S31587804A6012AB43F8302D069F39783E29C9D0A845A1
S31587804A7001DC264874E721B9013556F82520069248
S31587804A80F1E700221946384603932AF083FF3A785E
S31587804A90039B3F2A09BF069A00BA01320692049A77
S31587804AA018BFCBF8000004320492069A0BF1040BE8
S31587804AB0D21B002A04DC3946154851E70132069213
S31587804AC0069A11782029F9D0CDE700BFF19683879A
S31587804AD06580838768808387ABD683878A80838749
S31587804AE0B9808387607B8487D58083874581838761
S31587804AF0488183877B8183877E818387A481838798
S31587804B006077848724828387C28183870982838724
S31587804B10E88183875B2A2DD101330DF1480B4BF8CA
S31587804B20303DAE4FAE4B069A12785D2A02D10CE0A5
S31587804B300130069006980278202AF9D05AB901352D
S31587804B4056F825200692A845EDDC069B19785D29BF
S31587804B503FF457AF8DE79A5C12F0440FF5D0102259
S31587804B6059462AF017FF049A387001320492013722
S31587804B709B4BE8E7994F069829F008FF069900F13D
S31587804B80010B384629F0A2FE049B01355B440493CA
S31587804B9056F8043FA8455F440693ECDC31E7672BDC
S31587804BA040F0BE800023B8F1040F04937FF735AEBB
S31587804BB0B8F1050FBE6803D13378732B7FF42DAE9A
S31587804BC039692068FD68D7F814A027F059FEB0F1B7
S31587804BD0000BFFF6EDAE33786E2B04D0732B4ED158
S31587804BE0B8F1050F4BD15946206827F08FFE0DF116
S31587804BF0480848F8300D594682464246206826F04E
S31587804C00F7FF337883466E2B32D11022002178695D
S31587804C102AF0C0FE03464FF0FF370AF1010202925F
S31587804C20069A52451CDD02999142327808BF013730
S31587804C306E2A0BD19F4209D159460022206827F0D8
S31587804C404EFC0146284605F017FABCE65946424689
S31587804C502068039326F0CCFFB0F1000B039BDFDA45
S31587804C603378732B07D1791C284605F023FAAAE671
S31587804C704FF0FF33CFE75B482AF003FEECE52068E9
S31587804C8004AB5246594627F06DFD049C07460CB9FE
S31587804C905549D7E700283DD0002C3BDD3378762BE6
S31587804CA029D12146FFF702FD064608B13946C9E76D
S31587804CB0042C0AD13A684D4912BA06A82AF0D4FD3F
S31587804CC006A9284605F0D8F9D2E5A20711D1142C72
S31587804CD00FDC8046DFF830A106AB57F8082003EB58
S31587804CE04800514608F104082AF0BEFD4445F3DCA6
S31587804CF0E6E73F48C0E7612B06D102463D4906A8CD
S31587804D002AF0B2FD06A99DE7732B7FF486AD2246EE
S31587804D103649F4E7204627F00FF8014636481FE6DE
S31587804D20702B21D06C2B40F0DC800126B8F1020FE6
S31587804D301CD0B8F1030FD7F808A019D0FD68514663
S31587804D40206827F09DFD071EFFF632AE206815B3D3
S31587804D5006AB2A46394627F005FD069E04464EB998
S31587804D602A4651462548B0E52026DFE7DFF89CA00E
S31587804D700025E4E768B1002E0BDD294620482AF016
S31587804D8080FD06992046FFF7B5FC1E482AF079FDF7
S31587804D9019E63046BFE7DFF87880DFF878A03946AE
S31587804DA004AA206826F09EFE431E0146082B00F241
S31587804DB0938001A252F823F0194E8087514E8087BF
S31587804DC0714E8087CB4E8087D94E8087D94E808794
S31587804DD0D94E8087D94E80875948808760778487E0
S31587804DE0845B83873E8283872D8E8387558283875D
S31587804DF05C828387768283877B82838784B883876F
S31587804E00C8828387C5CC8387BDC68387A73E848729
S31587804E10A93E8487CE82838700223946206827F0F9
S31587804E205EFBAE420FDBAB4BC5F12001002808BF86
S31587804E301846A94B02784144002A14BF02461A466F
S31587804E40A6482AF01EFD01351F2D0DDDA44813E7E0
S31587804E50013DAE4208DBC5F120014144A1482AF0D5
S31587804E6010FD002D3FF4AFAD6B1C049F97D1AAE54B
S31587804E700C223946206826F01BFE8168074609BAC8
S31587804E80206827F0F5FA7B68024618BA00280690CC
S31587804E90FFF641AF08D1AE42E6DBC5F1200141443A
S31587804EA091482AF0EEFCDFE7AE42DDDBC5F12001D3
S31587804EB041448E482AF0E5FC07F10C000699FFF7F6
S31587804EC019FC8B482AF0DDFCCEE7C5F120014144E9
S31587804ED050462AF0D6FCC7E7AE42FFF6BDAC85487A
S31587804EE03EE50222844929F033FDF8B9B9682868F6
S31587804EF027F0C6FC011EFFF65BADB8F1030F286865
S31587804F000ADDFA6827F0EFF8061EBFF65CAD26F055
S31587804F1013FF01467948A9E427F05FF9061EBFF695
S31587804F2052AD26F009FF014675489FE47868037875
S31587804F30682B6CD1B8F1050FD5F800A01BD1BB685B
S31587804F401B78672B7FF488AC00246E4D0A2C3FF440
S31587804F5083AC396955F8240029F0EFFC4FEA840839
S31587804F60064608B10134F1E75AF80810F86809BA95
S31587804F7005F0ACF87CE4DAF80010634809BADAF809
S31587804F8014502AF07EFC236860485A682DBA12BA74
S31587804F9011462AF076FC23685D48996809BA2AF013
S31587804FA070FC23685B48D96809BA2AF06AFC23684B
S31587804FB05948196909BA2AF064FC294657482AF05C
S31587804FC060FC23685648996909BA2AF05AFC012DEC
S31587804FD015D923685348D96909BA2AF052FC022D14
S31587804FE00DD023685048196A09BA2AF04AFC102DD1
S31587804FF005D923684D48596A09BA2AF042FC206840
S3158780500027F058FA01464A482AF03BFCBDE6032238
S31587805010484929F09DFC064640B901461022B86862
S315878050202AF0B8FC2B6800BAD86121E4022242496B
S31587805030786829F08DFC0546A8B910220146B8689C
S315878050402AF024FD102282468B46F86829462AF064
S315878050501DFDCDE9000152465B46206807F098FF23
S3158780506000EAE07604E402223449786829F070FC05
S315878050700546002840F09F80BB681B78702B67D1D8
S31587805080206827F017FA07462D482AF0FAFB2D481D
S315878050902AF0F7FBDFF8B480BD42BFF694AC06AB47
S315878050A004AA2946206827F0E6F9061E05DA26F03F
S315878050B043FE01462448FFF7D9BB069B29460193C1
S315878050C0079B40460093DDE904322AF0DAFB0135F7
S315878050D0E2E700BF4C808387638083879582838757
S315878050E09D828387B9828387BF828387C6828387A8
S315878050F0C3828387DB828387751D8487EF828387D5
S315878051000A83838708348387268383873583838740
S315878051104C83838762838387798383879083838797
S315878051209E838387B5838387CC838387E38383873C
S31587805130FA838387118483876273838705E483876A
S315878051401584838730748387308483874F84838766
S31587805150612B1BD110220146F8682AF097FC102212
S3158780516082468B46386929462AF090FCCDE900012C
S3158780517052465B46206826F022FF061EBFF623AC82
S3158780518026F0DAFD01462E48FFF770BB642B7FF445
S3158780519044AB01461022F8682AF0FCFB014620685A
S315878051A026F038FF061EBFF60EAC26F0C5FD0146F3
S315878051B02448FFF75BBB03222349786829F0C8FB1D
S315878051C00646F8B9B8F1020F19D0B8F1040F7FF403
S315878051D024AB01461022B8682AF0DCFB10220546EC
S315878051E03146F8682AF0D6FB0746206807F00CFE1A
S315878051F03A462946206807F06DFDFFF739BB074693
S315878052000546F2E702221149786829F0A1FB06460E
S3158780521000287FF402ABB8F1020F0AD0014610222C
S31587805220B8682AF0B7FB0146206807F043FFFFF787
S315878052301FBB0146F8E7064B1B680693FFF70ABB39
S315878052406984838788848387F58A838795F9838723
S31587805250607B848700207047022A4FF0FF30C8BF63
S31587805260002070470020704713B50024009417F0FC
S31587805270A9FB02B010BD13B50024009417F0C2FBBA
S3158780528002B010BD13B50024009417F005FD02B057
S3158780529010BD13B50024009417F0D0FC02B010BD62
S315878052A013B50024009417F09BFD02B010BD17F04C
S315878052B06FBD37B5044615460A4601A92AF06AFBAB
S315878052C0019B2860A34207D01B78002B14BF6FF001
S315878052D01500002003B030BD6FF01500FAE7000097
S315878052E0012A2DE9FF4D14461F4615DD022A5D6882
S315878052F013D07A49986829F020FBB0FA80F6760928
S31587805300B31CE41A012C07EB830A08DC4FF0FF38BD
S31587805310404604B0BDE8F08D00250026F0E70021E1
S315878053206A4657F82300FFF7C4FF01460028EDD168
S3158780533001AADAF80400FFF7BCFF80460028E5D18A
S315878053406749284629F0F9FA0746002832D1022C80
S315878053500ED101230293009962482AF092FA624C11
S31587805360624D029B9F420ED30A2008F031FDCFE71C
S31587805370032CCBD1014602AADAF80800FFF799FFFA
S315878053800028E8D0C2E7BA0703D1019920462AF0D8
S3158780539078FADDE9000103AA0FF0E4FA002840F0E5
S315878053A09A80039928462AF06CFA019B0137013344
S315878053B00193D6E74E49284629F0BFFA074668BB48
S315878053C0022C20D10123029300994A482AF059FA60
S315878053D0454C464D029B9F42C6D2BB0703D1019956
S315878053E020462AF04EFADDE9000103AA0FF0E6FA95
S315878053F0002870D1039928462AF043FA019B013702
S3158780540001330193E6E7032C80D1014602AADAF8B5
S315878054100800FFF74EFF0028D6D077E7364928461B
S3158780542029F08BFA78BB022C3FF470AF0225334F75
S31587805430DFF8DCB003AA10215AF82500FFF739FF79
S3158780544000287FF463AFDDE90012039B38462AF094
S3158780545018FA5EB9584608F0D7FC08F003FD28B9D4
S31587805460274808F0D1FC4FF0010851E7039ADDE918
S3158780547000010FF0E3FA70BB019B01350133AC4223
S315878054800193D7DC44E71F49284629F056FA002836
S315878054907FF43CAF022C3FF439AF02251A4E03AA1C
S315878054A010215AF82500FFF704FF00287FF42EAFD6
S315878054B0DDE90012039B30462AF0E3F9DDE9000136
S315878054C0039A0FF0E1FA30B9019B01350133AC427B
S315878054D00193E4DC1CE70D48C3E700BFE884838734
S315878054E063F98387EB848387FD8483870B858387AB
S315878054F01185838717858387298583872E858387E4
